{
  "contractName": "UniqueCreator",
  "abi": [
    {
      "inputs": [],
      "stateMutability": "nonpayable",
      "type": "constructor"
    },
    {
      "anonymous": false,
      "inputs": [
        {
          "indexed": true,
          "internalType": "address",
          "name": "owner",
          "type": "address"
        },
        {
          "indexed": true,
          "internalType": "address",
          "name": "approved",
          "type": "address"
        },
        {
          "indexed": true,
          "internalType": "uint256",
          "name": "tokenId",
          "type": "uint256"
        }
      ],
      "name": "Approval",
      "type": "event"
    },
    {
      "anonymous": false,
      "inputs": [
        {
          "indexed": true,
          "internalType": "address",
          "name": "owner",
          "type": "address"
        },
        {
          "indexed": true,
          "internalType": "address",
          "name": "operator",
          "type": "address"
        },
        {
          "indexed": false,
          "internalType": "bool",
          "name": "approved",
          "type": "bool"
        }
      ],
      "name": "ApprovalForAll",
      "type": "event"
    },
    {
      "anonymous": false,
      "inputs": [
        {
          "indexed": true,
          "internalType": "address",
          "name": "from",
          "type": "address"
        },
        {
          "indexed": true,
          "internalType": "address",
          "name": "to",
          "type": "address"
        },
        {
          "indexed": true,
          "internalType": "uint256",
          "name": "tokenId",
          "type": "uint256"
        }
      ],
      "name": "Transfer",
      "type": "event"
    },
    {
      "anonymous": false,
      "inputs": [
        {
          "indexed": false,
          "internalType": "string",
          "name": "_md5",
          "type": "string"
        }
      ],
      "name": "mintUnique",
      "type": "event"
    },
    {
      "inputs": [
        {
          "internalType": "address",
          "name": "to",
          "type": "address"
        },
        {
          "internalType": "uint256",
          "name": "tokenId",
          "type": "uint256"
        }
      ],
      "name": "approve",
      "outputs": [],
      "stateMutability": "nonpayable",
      "type": "function"
    },
    {
      "inputs": [
        {
          "internalType": "address",
          "name": "owner",
          "type": "address"
        }
      ],
      "name": "balanceOf",
      "outputs": [
        {
          "internalType": "uint256",
          "name": "",
          "type": "uint256"
        }
      ],
      "stateMutability": "view",
      "type": "function",
      "constant": true
    },
    {
      "inputs": [
        {
          "internalType": "uint256",
          "name": "",
          "type": "uint256"
        }
      ],
      "name": "files",
      "outputs": [
        {
          "internalType": "address",
          "name": "user",
          "type": "address"
        },
        {
          "internalType": "string",
          "name": "md5",
          "type": "string"
        },
        {
          "internalType": "string",
          "name": "url",
          "type": "string"
        }
      ],
      "stateMutability": "view",
      "type": "function",
      "constant": true
    },
    {
      "inputs": [
        {
          "internalType": "uint256",
          "name": "tokenId",
          "type": "uint256"
        }
      ],
      "name": "getApproved",
      "outputs": [
        {
          "internalType": "address",
          "name": "",
          "type": "address"
        }
      ],
      "stateMutability": "view",
      "type": "function",
      "constant": true
    },
    {
      "inputs": [
        {
          "internalType": "address",
          "name": "owner",
          "type": "address"
        },
        {
          "internalType": "address",
          "name": "operator",
          "type": "address"
        }
      ],
      "name": "isApprovedForAll",
      "outputs": [
        {
          "internalType": "bool",
          "name": "",
          "type": "bool"
        }
      ],
      "stateMutability": "view",
      "type": "function",
      "constant": true
    },
    {
      "inputs": [],
      "name": "name",
      "outputs": [
        {
          "internalType": "string",
          "name": "",
          "type": "string"
        }
      ],
      "stateMutability": "view",
      "type": "function",
      "constant": true
    },
    {
      "inputs": [
        {
          "internalType": "uint256",
          "name": "tokenId",
          "type": "uint256"
        }
      ],
      "name": "ownerOf",
      "outputs": [
        {
          "internalType": "address",
          "name": "",
          "type": "address"
        }
      ],
      "stateMutability": "view",
      "type": "function",
      "constant": true
    },
    {
      "inputs": [
        {
          "internalType": "address",
          "name": "from",
          "type": "address"
        },
        {
          "internalType": "address",
          "name": "to",
          "type": "address"
        },
        {
          "internalType": "uint256",
          "name": "tokenId",
          "type": "uint256"
        }
      ],
      "name": "safeTransferFrom",
      "outputs": [],
      "stateMutability": "nonpayable",
      "type": "function"
    },
    {
      "inputs": [
        {
          "internalType": "address",
          "name": "from",
          "type": "address"
        },
        {
          "internalType": "address",
          "name": "to",
          "type": "address"
        },
        {
          "internalType": "uint256",
          "name": "tokenId",
          "type": "uint256"
        },
        {
          "internalType": "bytes",
          "name": "_data",
          "type": "bytes"
        }
      ],
      "name": "safeTransferFrom",
      "outputs": [],
      "stateMutability": "nonpayable",
      "type": "function"
    },
    {
      "inputs": [
        {
          "internalType": "address",
          "name": "operator",
          "type": "address"
        },
        {
          "internalType": "bool",
          "name": "approved",
          "type": "bool"
        }
      ],
      "name": "setApprovalForAll",
      "outputs": [],
      "stateMutability": "nonpayable",
      "type": "function"
    },
    {
      "inputs": [
        {
          "internalType": "bytes4",
          "name": "interfaceId",
          "type": "bytes4"
        }
      ],
      "name": "supportsInterface",
      "outputs": [
        {
          "internalType": "bool",
          "name": "",
          "type": "bool"
        }
      ],
      "stateMutability": "view",
      "type": "function",
      "constant": true
    },
    {
      "inputs": [],
      "name": "symbol",
      "outputs": [
        {
          "internalType": "string",
          "name": "",
          "type": "string"
        }
      ],
      "stateMutability": "view",
      "type": "function",
      "constant": true
    },
    {
      "inputs": [
        {
          "internalType": "uint256",
          "name": "tokenId",
          "type": "uint256"
        }
      ],
      "name": "tokenURI",
      "outputs": [
        {
          "internalType": "string",
          "name": "",
          "type": "string"
        }
      ],
      "stateMutability": "view",
      "type": "function",
      "constant": true
    },
    {
      "inputs": [
        {
          "internalType": "address",
          "name": "from",
          "type": "address"
        },
        {
          "internalType": "address",
          "name": "to",
          "type": "address"
        },
        {
          "internalType": "uint256",
          "name": "tokenId",
          "type": "uint256"
        }
      ],
      "name": "transferFrom",
      "outputs": [],
      "stateMutability": "nonpayable",
      "type": "function"
    },
    {
      "inputs": [],
      "name": "totalSupply",
      "outputs": [
        {
          "internalType": "uint256",
          "name": "",
          "type": "uint256"
        }
      ],
      "stateMutability": "view",
      "type": "function",
      "constant": true
    },
    {
      "inputs": [
        {
          "internalType": "string",
          "name": "_md5",
          "type": "string"
        },
        {
          "internalType": "string",
          "name": "_url",
          "type": "string"
        }
      ],
      "name": "mint",
      "outputs": [],
      "stateMutability": "nonpayable",
      "type": "function"
    }
  ],
  "bytecode": "0x60806040523480156200001157600080fd5b506040518060400160405280600d81526020017f556e6971756543726561746f72000000000000000000000000000000000000008152506040518060400160405280600d81526020017f554e4951554543524541544f5200000000000000000000000000000000000000815250816000908051906020019062000096929190620000b8565b508060019080519060200190620000af929190620000b8565b505050620001cd565b828054620000c69062000168565b90600052602060002090601f016020900481019282620000ea576000855562000136565b82601f106200010557805160ff191683800117855562000136565b8280016001018555821562000136579182015b828111156200013557825182559160200191906001019062000118565b5b50905062000145919062000149565b5090565b5b80821115620001645760008160009055506001016200014a565b5090565b600060028204905060018216806200018157607f821691505b602082108114156200019857620001976200019e565b5b50919050565b7f4e487b7100000000000000000000000000000000000000000000000000000000600052602260045260246000fd5b612b8f80620001dd6000396000f3fe608060405234801561001057600080fd5b50600436106101005760003560e01c806370a0823111610097578063b88d4fde11610066578063b88d4fde146102ab578063c87b56dd146102c7578063e985e9c5146102f7578063f4c714b41461032757610100565b806370a08231146102255780638aa0fdad1461025557806395d89b4114610271578063a22cb4651461028f57610100565b806318160ddd116100d357806318160ddd1461019f57806323b872dd146101bd57806342842e0e146101d95780636352211e146101f557610100565b806301ffc9a71461010557806306fdde0314610135578063081812fc14610153578063095ea7b314610183575b600080fd5b61011f600480360381019061011a9190611d07565b610359565b60405161012c9190612507565b60405180910390f35b61013d61043b565b60405161014a9190612522565b60405180910390f35b61016d60048036038101906101689190611dc5565b6104cd565b60405161017a919061245b565b60405180910390f35b61019d60048036038101906101989190611ccb565b610552565b005b6101a761066a565b6040516101b49190612724565b60405180910390f35b6101d760048036038101906101d29190611bc5565b610677565b005b6101f360048036038101906101ee9190611bc5565b6106d7565b005b61020f600480360381019061020a9190611dc5565b6106f7565b60405161021c919061245b565b60405180910390f35b61023f600480360381019061023a9190611b60565b6107a9565b60405161024c9190612724565b60405180910390f35b61026f600480360381019061026a9190611d59565b610861565b005b6102796109fc565b6040516102869190612522565b60405180910390f35b6102a960048036038101906102a49190611c8f565b610a8e565b005b6102c560048036038101906102c09190611c14565b610c0f565b005b6102e160048036038101906102dc9190611dc5565b610c71565b6040516102ee9190612522565b60405180910390f35b610311600480360381019061030c9190611b89565b610d18565b60405161031e9190612507565b60405180910390f35b610341600480360381019061033c9190611dc5565b610dac565b604051610350939291906124c2565b60405180910390f35b60007f80ac58cd000000000000000000000000000000000000000000000000000000007bffffffffffffffffffffffffffffffffffffffffffffffffffffffff1916827bffffffffffffffffffffffffffffffffffffffffffffffffffffffff1916148061042457507f5b5e139f000000000000000000000000000000000000000000000000000000007bffffffffffffffffffffffffffffffffffffffffffffffffffffffff1916827bffffffffffffffffffffffffffffffffffffffffffffffffffffffff1916145b80610434575061043382610f16565b5b9050919050565b60606000805461044a90612984565b80601f016020809104026020016040519081016040528092919081815260200182805461047690612984565b80156104c35780601f10610498576101008083540402835291602001916104c3565b820191906000526020600020905b8154815290600101906020018083116104a657829003601f168201915b5050505050905090565b60006104d882610f80565b610517576040517f08c379a000000000000000000000000000000000000000000000000000000000815260040161050e90612684565b60405180910390fd5b6004600083815260200190815260200160002060009054906101000a900473ffffffffffffffffffffffffffffffffffffffff169050919050565b600061055d826106f7565b90508073ffffffffffffffffffffffffffffffffffffffff168373ffffffffffffffffffffffffffffffffffffffff1614156105ce576040517f08c379a00000000000000000000000000000000000000000000000000000000081526004016105c5906126e4565b60405180910390fd5b8073ffffffffffffffffffffffffffffffffffffffff166105ed610fec565b73ffffffffffffffffffffffffffffffffffffffff16148061061c575061061b81610616610fec565b610d18565b5b61065b576040517f08c379a000000000000000000000000000000000000000000000000000000000815260040161065290612604565b60405180910390fd5b6106658383610ff4565b505050565b6000600680549050905090565b610688610682610fec565b826110ad565b6106c7576040517f08c379a00000000000000000000000000000000000000000000000000000000081526004016106be90612704565b60405180910390fd5b6106d283838361118b565b505050565b6106f283838360405180602001604052806000815250610c0f565b505050565b6000806002600084815260200190815260200160002060009054906101000a900473ffffffffffffffffffffffffffffffffffffffff169050600073ffffffffffffffffffffffffffffffffffffffff168173ffffffffffffffffffffffffffffffffffffffff1614156107a0576040517f08c379a000000000000000000000000000000000000000000000000000000000815260040161079790612644565b60405180910390fd5b80915050919050565b60008073ffffffffffffffffffffffffffffffffffffffff168273ffffffffffffffffffffffffffffffffffffffff16141561081a576040517f08c379a000000000000000000000000000000000000000000000000000000000815260040161081190612624565b60405180910390fd5b600360008373ffffffffffffffffffffffffffffffffffffffff1673ffffffffffffffffffffffffffffffffffffffff168152602001908152602001600020549050919050565b6007826040516108719190612420565b908152602001604051809103902060009054906101000a900460ff16156108cd576040517f08c379a00000000000000000000000000000000000000000000000000000000081526004016108c4906125e4565b60405180910390fd5b600660405180606001604052803373ffffffffffffffffffffffffffffffffffffffff16815260200184815260200183815250908060018154018082558091505060019003906000526020600020906003020160009091909190915060008201518160000160006101000a81548173ffffffffffffffffffffffffffffffffffffffff021916908373ffffffffffffffffffffffffffffffffffffffff160217905550602082015181600101908051906020019061098c929190611984565b5060408201518160020190805190602001906109a9929190611984565b505050600060068054905090506109c033826113e7565b60016007846040516109d29190612420565b908152602001604051809103902060006101000a81548160ff021916908315150217905550505050565b606060018054610a0b90612984565b80601f0160208091040260200160405190810160405280929190818152602001828054610a3790612984565b8015610a845780601f10610a5957610100808354040283529160200191610a84565b820191906000526020600020905b815481529060010190602001808311610a6757829003601f168201915b5050505050905090565b610a96610fec565b73ffffffffffffffffffffffffffffffffffffffff168273ffffffffffffffffffffffffffffffffffffffff161415610b04576040517f08c379a0000000000000000000000000000000000000000000000000000000008152600401610afb906125a4565b60405180910390fd5b8060056000610b11610fec565b73ffffffffffffffffffffffffffffffffffffffff1673ffffffffffffffffffffffffffffffffffffffff16815260200190815260200160002060008473ffffffffffffffffffffffffffffffffffffffff1673ffffffffffffffffffffffffffffffffffffffff16815260200190815260200160002060006101000a81548160ff0219169083151502179055508173ffffffffffffffffffffffffffffffffffffffff16610bbe610fec565b73ffffffffffffffffffffffffffffffffffffffff167f17307eab39ab6107e8899845ad3d59bd9653f200f220920489ca2b5937696c3183604051610c039190612507565b60405180910390a35050565b610c20610c1a610fec565b836110ad565b610c5f576040517f08c379a0000000000000000000000000000000000000000000000000000000008152600401610c5690612704565b60405180910390fd5b610c6b848484846115b5565b50505050565b6060610c7c82610f80565b610cbb576040517f08c379a0000000000000000000000000000000000000000000000000000000008152600401610cb2906126c4565b60405180910390fd5b6000610cc5611611565b90506000815111610ce55760405180602001604052806000815250610d10565b80610cef84611628565b604051602001610d00929190612437565b6040516020818303038152906040525b915050919050565b6000600560008473ffffffffffffffffffffffffffffffffffffffff1673ffffffffffffffffffffffffffffffffffffffff16815260200190815260200160002060008373ffffffffffffffffffffffffffffffffffffffff1673ffffffffffffffffffffffffffffffffffffffff16815260200190815260200160002060009054906101000a900460ff16905092915050565b60068181548110610dbc57600080fd5b90600052602060002090600302016000915090508060000160009054906101000a900473ffffffffffffffffffffffffffffffffffffffff1690806001018054610e0590612984565b80601f0160208091040260200160405190810160405280929190818152602001828054610e3190612984565b8015610e7e5780601f10610e5357610100808354040283529160200191610e7e565b820191906000526020600020905b815481529060010190602001808311610e6157829003601f168201915b505050505090806002018054610e9390612984565b80601f0160208091040260200160405190810160405280929190818152602001828054610ebf90612984565b8015610f0c5780601f10610ee157610100808354040283529160200191610f0c565b820191906000526020600020905b815481529060010190602001808311610eef57829003601f168201915b5050505050905083565b60007f01ffc9a7000000000000000000000000000000000000000000000000000000007bffffffffffffffffffffffffffffffffffffffffffffffffffffffff1916827bffffffffffffffffffffffffffffffffffffffffffffffffffffffff1916149050919050565b60008073ffffffffffffffffffffffffffffffffffffffff166002600084815260200190815260200160002060009054906101000a900473ffffffffffffffffffffffffffffffffffffffff1673ffffffffffffffffffffffffffffffffffffffff1614159050919050565b600033905090565b816004600083815260200190815260200160002060006101000a81548173ffffffffffffffffffffffffffffffffffffffff021916908373ffffffffffffffffffffffffffffffffffffffff160217905550808273ffffffffffffffffffffffffffffffffffffffff16611067836106f7565b73ffffffffffffffffffffffffffffffffffffffff167f8c5be1e5ebec7d5bd14f71427d1e84f3dd0314c0f7b2291e5b200ac8c7c3b92560405160405180910390a45050565b60006110b882610f80565b6110f7576040517f08c379a00000000000000000000000000000000000000000000000000000000081526004016110ee906125c4565b60405180910390fd5b6000611102836106f7565b90508073ffffffffffffffffffffffffffffffffffffffff168473ffffffffffffffffffffffffffffffffffffffff16148061117157508373ffffffffffffffffffffffffffffffffffffffff16611159846104cd565b73ffffffffffffffffffffffffffffffffffffffff16145b8061118257506111818185610d18565b5b91505092915050565b8273ffffffffffffffffffffffffffffffffffffffff166111ab826106f7565b73ffffffffffffffffffffffffffffffffffffffff1614611201576040517f08c379a00000000000000000000000000000000000000000000000000000000081526004016111f8906126a4565b60405180910390fd5b600073ffffffffffffffffffffffffffffffffffffffff168273ffffffffffffffffffffffffffffffffffffffff161415611271576040517f08c379a000000000000000000000000000000000000000000000000000000000815260040161126890612584565b60405180910390fd5b61127c8383836117d5565b611287600082610ff4565b6001600360008573ffffffffffffffffffffffffffffffffffffffff1673ffffffffffffffffffffffffffffffffffffffff16815260200190815260200160002060008282546112d7919061289a565b925050819055506001600360008473ffffffffffffffffffffffffffffffffffffffff1673ffffffffffffffffffffffffffffffffffffffff168152602001908152602001600020600082825461132e9190612813565b92505081905550816002600083815260200190815260200160002060006101000a81548173ffffffffffffffffffffffffffffffffffffffff021916908373ffffffffffffffffffffffffffffffffffffffff160217905550808273ffffffffffffffffffffffffffffffffffffffff168473ffffffffffffffffffffffffffffffffffffffff167fddf252ad1be2c89b69c2b068fc378daa952ba7f163c4a11628f55a4df523b3ef60405160405180910390a4505050565b600073ffffffffffffffffffffffffffffffffffffffff168273ffffffffffffffffffffffffffffffffffffffff161415611457576040517f08c379a000000000000000000000000000000000000000000000000000000000815260040161144e90612664565b60405180910390fd5b61146081610f80565b156114a0576040517f08c379a000000000000000000000000000000000000000000000000000000000815260040161149790612564565b60405180910390fd5b6114ac600083836117d5565b6001600360008473ffffffffffffffffffffffffffffffffffffffff1673ffffffffffffffffffffffffffffffffffffffff16815260200190815260200160002060008282546114fc9190612813565b92505081905550816002600083815260200190815260200160002060006101000a81548173ffffffffffffffffffffffffffffffffffffffff021916908373ffffffffffffffffffffffffffffffffffffffff160217905550808273ffffffffffffffffffffffffffffffffffffffff16600073ffffffffffffffffffffffffffffffffffffffff167fddf252ad1be2c89b69c2b068fc378daa952ba7f163c4a11628f55a4df523b3ef60405160405180910390a45050565b6115c084848461118b565b6115cc848484846117da565b61160b576040517f08c379a000000000000000000000000000000000000000000000000000000000815260040161160290612544565b60405180910390fd5b50505050565b606060405180602001604052806000815250905090565b60606000821415611670576040518060400160405280600181526020017f300000000000000000000000000000000000000000000000000000000000000081525090506117d0565b600082905060005b600082146116a257808061168b906129b6565b915050600a8261169b9190612869565b9150611678565b60008167ffffffffffffffff8111156116e4577f4e487b7100000000000000000000000000000000000000000000000000000000600052604160045260246000fd5b6040519080825280601f01601f1916602001820160405280156117165781602001600182028036833780820191505090505b5090505b600085146117c95760018261172f919061289a565b9150600a8561173e91906129ff565b603061174a9190612813565b60f81b818381518110611786577f4e487b7100000000000000000000000000000000000000000000000000000000600052603260045260246000fd5b60200101907effffffffffffffffffffffffffffffffffffffffffffffffffffffffffffff1916908160001a905350600a856117c29190612869565b945061171a565b8093505050505b919050565b505050565b60006117fb8473ffffffffffffffffffffffffffffffffffffffff16611971565b15611964578373ffffffffffffffffffffffffffffffffffffffff1663150b7a02611824610fec565b8786866040518563ffffffff1660e01b81526004016118469493929190612476565b602060405180830381600087803b15801561186057600080fd5b505af192505050801561189157506040513d601f19601f8201168201806040525081019061188e9190611d30565b60015b611914573d80600081146118c1576040519150601f19603f3d011682016040523d82523d6000602084013e6118c6565b606091505b5060008151141561190c576040517f08c379a000000000000000000000000000000000000000000000000000000000815260040161190390612544565b60405180910390fd5b805181602001fd5b63150b7a0260e01b7bffffffffffffffffffffffffffffffffffffffffffffffffffffffff1916817bffffffffffffffffffffffffffffffffffffffffffffffffffffffff191614915050611969565b600190505b949350505050565b600080823b905060008111915050919050565b82805461199090612984565b90600052602060002090601f0160209004810192826119b257600085556119f9565b82601f106119cb57805160ff19168380011785556119f9565b828001600101855582156119f9579182015b828111156119f85782518255916020019190600101906119dd565b5b509050611a069190611a0a565b5090565b5b80821115611a23576000816000905550600101611a0b565b5090565b6000611a3a611a3584612770565b61273f565b905082815260208101848484011115611a5257600080fd5b611a5d848285612942565b509392505050565b6000611a78611a73846127a0565b61273f565b905082815260208101848484011115611a9057600080fd5b611a9b848285612942565b509392505050565b600081359050611ab281612afd565b92915050565b600081359050611ac781612b14565b92915050565b600081359050611adc81612b2b565b92915050565b600081519050611af181612b2b565b92915050565b600082601f830112611b0857600080fd5b8135611b18848260208601611a27565b91505092915050565b600082601f830112611b3257600080fd5b8135611b42848260208601611a65565b91505092915050565b600081359050611b5a81612b42565b92915050565b600060208284031215611b7257600080fd5b6000611b8084828501611aa3565b91505092915050565b60008060408385031215611b9c57600080fd5b6000611baa85828601611aa3565b9250506020611bbb85828601611aa3565b9150509250929050565b600080600060608486031215611bda57600080fd5b6000611be886828701611aa3565b9350506020611bf986828701611aa3565b9250506040611c0a86828701611b4b565b9150509250925092565b60008060008060808587031215611c2a57600080fd5b6000611c3887828801611aa3565b9450506020611c4987828801611aa3565b9350506040611c5a87828801611b4b565b925050606085013567ffffffffffffffff811115611c7757600080fd5b611c8387828801611af7565b91505092959194509250565b60008060408385031215611ca257600080fd5b6000611cb085828601611aa3565b9250506020611cc185828601611ab8565b9150509250929050565b60008060408385031215611cde57600080fd5b6000611cec85828601611aa3565b9250506020611cfd85828601611b4b565b9150509250929050565b600060208284031215611d1957600080fd5b6000611d2784828501611acd565b91505092915050565b600060208284031215611d4257600080fd5b6000611d5084828501611ae2565b91505092915050565b60008060408385031215611d6c57600080fd5b600083013567ffffffffffffffff811115611d8657600080fd5b611d9285828601611b21565b925050602083013567ffffffffffffffff811115611daf57600080fd5b611dbb85828601611b21565b9150509250929050565b600060208284031215611dd757600080fd5b6000611de584828501611b4b565b91505092915050565b611df7816128ce565b82525050565b611e06816128e0565b82525050565b6000611e17826127d0565b611e2181856127e6565b9350611e31818560208601612951565b611e3a81612aec565b840191505092915050565b6000611e50826127db565b611e5a81856127f7565b9350611e6a818560208601612951565b611e7381612aec565b840191505092915050565b6000611e89826127db565b611e938185612808565b9350611ea3818560208601612951565b80840191505092915050565b6000611ebc6032836127f7565b91507f4552433732313a207472616e7366657220746f206e6f6e20455243373231526560008301527f63656976657220696d706c656d656e74657200000000000000000000000000006020830152604082019050919050565b6000611f22601c836127f7565b91507f4552433732313a20746f6b656e20616c7265616479206d696e746564000000006000830152602082019050919050565b6000611f626024836127f7565b91507f4552433732313a207472616e7366657220746f20746865207a65726f2061646460008301527f72657373000000000000000000000000000000000000000000000000000000006020830152604082019050919050565b6000611fc86019836127f7565b91507f4552433732313a20617070726f766520746f2063616c6c6572000000000000006000830152602082019050919050565b6000612008602c836127f7565b91507f4552433732313a206f70657261746f7220717565727920666f72206e6f6e657860008301527f697374656e7420746f6b656e00000000000000000000000000000000000000006020830152604082019050919050565b600061206e6013836127f7565b91507f66696c6520616c72656164792065786973742e000000000000000000000000006000830152602082019050919050565b60006120ae6038836127f7565b91507f4552433732313a20617070726f76652063616c6c6572206973206e6f74206f7760008301527f6e6572206e6f7220617070726f76656420666f7220616c6c00000000000000006020830152604082019050919050565b6000612114602a836127f7565b91507f4552433732313a2062616c616e636520717565727920666f7220746865207a6560008301527f726f2061646472657373000000000000000000000000000000000000000000006020830152604082019050919050565b600061217a6029836127f7565b91507f4552433732313a206f776e657220717565727920666f72206e6f6e657869737460008301527f656e7420746f6b656e00000000000000000000000000000000000000000000006020830152604082019050919050565b60006121e06020836127f7565b91507f4552433732313a206d696e7420746f20746865207a65726f20616464726573736000830152602082019050919050565b6000612220602c836127f7565b91507f4552433732313a20617070726f76656420717565727920666f72206e6f6e657860008301527f697374656e7420746f6b656e00000000000000000000000000000000000000006020830152604082019050919050565b60006122866029836127f7565b91507f4552433732313a207472616e73666572206f6620746f6b656e2074686174206960008301527f73206e6f74206f776e00000000000000000000000000000000000000000000006020830152604082019050919050565b60006122ec602f836127f7565b91507f4552433732314d657461646174613a2055524920717565727920666f72206e6f60008301527f6e6578697374656e7420746f6b656e00000000000000000000000000000000006020830152604082019050919050565b60006123526021836127f7565b91507f4552433732313a20617070726f76616c20746f2063757272656e74206f776e6560008301527f72000000000000000000000000000000000000000000000000000000000000006020830152604082019050919050565b60006123b86031836127f7565b91507f4552433732313a207472616e736665722063616c6c6572206973206e6f74206f60008301527f776e6572206e6f7220617070726f7665640000000000000000000000000000006020830152604082019050919050565b61241a81612938565b82525050565b600061242c8284611e7e565b915081905092915050565b60006124438285611e7e565b915061244f8284611e7e565b91508190509392505050565b60006020820190506124706000830184611dee565b92915050565b600060808201905061248b6000830187611dee565b6124986020830186611dee565b6124a56040830185612411565b81810360608301526124b78184611e0c565b905095945050505050565b60006060820190506124d76000830186611dee565b81810360208301526124e98185611e45565b905081810360408301526124fd8184611e45565b9050949350505050565b600060208201905061251c6000830184611dfd565b92915050565b6000602082019050818103600083015261253c8184611e45565b905092915050565b6000602082019050818103600083015261255d81611eaf565b9050919050565b6000602082019050818103600083015261257d81611f15565b9050919050565b6000602082019050818103600083015261259d81611f55565b9050919050565b600060208201905081810360008301526125bd81611fbb565b9050919050565b600060208201905081810360008301526125dd81611ffb565b9050919050565b600060208201905081810360008301526125fd81612061565b9050919050565b6000602082019050818103600083015261261d816120a1565b9050919050565b6000602082019050818103600083015261263d81612107565b9050919050565b6000602082019050818103600083015261265d8161216d565b9050919050565b6000602082019050818103600083015261267d816121d3565b9050919050565b6000602082019050818103600083015261269d81612213565b9050919050565b600060208201905081810360008301526126bd81612279565b9050919050565b600060208201905081810360008301526126dd816122df565b9050919050565b600060208201905081810360008301526126fd81612345565b9050919050565b6000602082019050818103600083015261271d816123ab565b9050919050565b60006020820190506127396000830184612411565b92915050565b6000604051905081810181811067ffffffffffffffff8211171561276657612765612abd565b5b8060405250919050565b600067ffffffffffffffff82111561278b5761278a612abd565b5b601f19601f8301169050602081019050919050565b600067ffffffffffffffff8211156127bb576127ba612abd565b5b601f19601f8301169050602081019050919050565b600081519050919050565b600081519050919050565b600082825260208201905092915050565b600082825260208201905092915050565b600081905092915050565b600061281e82612938565b915061282983612938565b9250827fffffffffffffffffffffffffffffffffffffffffffffffffffffffffffffffff0382111561285e5761285d612a30565b5b828201905092915050565b600061287482612938565b915061287f83612938565b92508261288f5761288e612a5f565b5b828204905092915050565b60006128a582612938565b91506128b083612938565b9250828210156128c3576128c2612a30565b5b828203905092915050565b60006128d982612918565b9050919050565b60008115159050919050565b60007fffffffff0000000000000000000000000000000000000000000000000000000082169050919050565b600073ffffffffffffffffffffffffffffffffffffffff82169050919050565b6000819050919050565b82818337600083830152505050565b60005b8381101561296f578082015181840152602081019050612954565b8381111561297e576000848401525b50505050565b6000600282049050600182168061299c57607f821691505b602082108114156129b0576129af612a8e565b5b50919050565b60006129c182612938565b91507fffffffffffffffffffffffffffffffffffffffffffffffffffffffffffffffff8214156129f4576129f3612a30565b5b600182019050919050565b6000612a0a82612938565b9150612a1583612938565b925082612a2557612a24612a5f565b5b828206905092915050565b7f4e487b7100000000000000000000000000000000000000000000000000000000600052601160045260246000fd5b7f4e487b7100000000000000000000000000000000000000000000000000000000600052601260045260246000fd5b7f4e487b7100000000000000000000000000000000000000000000000000000000600052602260045260246000fd5b7f4e487b7100000000000000000000000000000000000000000000000000000000600052604160045260246000fd5b6000601f19601f8301169050919050565b612b06816128ce565b8114612b1157600080fd5b50565b612b1d816128e0565b8114612b2857600080fd5b50565b612b34816128ec565b8114612b3f57600080fd5b50565b612b4b81612938565b8114612b5657600080fd5b5056fea2646970667358221220902b780e62c55c1cdc302cb9597c1acc0ab8403903469120d7e6d840663cbbeb64736f6c63430008000033",
  "immutableReferences": {},
  "source": "pragma solidity ^0.8.0;\n\nimport \"@openzeppelin/contracts/token/ERC721/ERC721.sol\";\n\n\nstruct File {\n  address user;\n  string md5;\n  string url;\n}\n\ncontract UniqueCreator is ERC721 {\n\n    File[] public files;\n    mapping(string=> bool) _fileMd5Exist;\n\n    event mintUnique(string _md5);\n\n    constructor() ERC721(\"UniqueCreator\", \"UNIQUECREATOR\") {\n    }\n\n\n    function totalSupply() public view returns(uint) {\n      return files.length;\n    }\n\n    function mint(string memory _md5, string memory _url) public {\n      require(!_fileMd5Exist[_md5], 'file already exist.');\n      files.push(File(msg.sender, _md5, _url));\n      uint _id = files.length;\n      _mint(msg.sender, _id);\n      _fileMd5Exist[_md5] = true;\n    }\n}\n\n\n\n",
  "sourcePath": "/Users/caoximeng/github/eth-pic-nft/nft/src/contracts/UniqueCreator.sol",
  "compiler": {
    "name": "solc",
    "version": "0.8.0+commit.c7dfd78e.Emscripten.clang"
  },
  "schemaVersion": "3.4.1",
  "updatedAt": "2021-05-15T16:59:36.235Z",
  "networkType": "ethereum",
  "devdoc": {
    "kind": "dev",
    "methods": {
      "approve(address,uint256)": {
        "details": "See {IERC721-approve}."
      },
      "balanceOf(address)": {
        "details": "See {IERC721-balanceOf}."
      },
      "getApproved(uint256)": {
        "details": "See {IERC721-getApproved}."
      },
      "isApprovedForAll(address,address)": {
        "details": "See {IERC721-isApprovedForAll}."
      },
      "name()": {
        "details": "See {IERC721Metadata-name}."
      },
      "ownerOf(uint256)": {
        "details": "See {IERC721-ownerOf}."
      },
      "safeTransferFrom(address,address,uint256)": {
        "details": "See {IERC721-safeTransferFrom}."
      },
      "safeTransferFrom(address,address,uint256,bytes)": {
        "details": "See {IERC721-safeTransferFrom}."
      },
      "setApprovalForAll(address,bool)": {
        "details": "See {IERC721-setApprovalForAll}."
      },
      "supportsInterface(bytes4)": {
        "details": "See {IERC165-supportsInterface}."
      },
      "symbol()": {
        "details": "See {IERC721Metadata-symbol}."
      },
      "tokenURI(uint256)": {
        "details": "See {IERC721Metadata-tokenURI}."
      },
      "transferFrom(address,address,uint256)": {
        "details": "See {IERC721-transferFrom}."
      }
    },
    "version": 1
  },
  "userdoc": {
    "kind": "user",
    "methods": {},
    "version": 1
  }
}